:100000000C9455000C9474000C9474000C947400BF
:100010000C9474000C9474000C9474000C94740090
:100020000C9474000C9474000C9474000C94740080
:100030000C9474000C942E020C9474000C947400B4
:100040000C9474000C9474000C9474000C94740060
:100050000C9474000C9474000C9474000C94740050
:100060000C9474000C9474000C9474000C94740040
:100070000C9474000C9474000C9474000C94740030
:100080000C9474000C9474000C947400DC00E40074
:10009000F00015011F01290133013D0158016201E2
:1000A00066018901A501C301E50111241FBECFEF3F
:1000B000D0E4DEBFCDBF11E0A0E0B1E0E4E2FDE1BD
:1000C00000E00BBF02C007900D92AA3AB107D9F722
:1000D00011E0AAEAB1E001C01D92AB3CB107E1F723
:1000E0000E9432090C94900E0C940000CF93C82FFC
:1000F0008A3019F48DE00E9476009091C00095FF3F
:10010000FCCFC093C60080E090E0CF91089520B16D
:10011000229521702093BE018130910569F08230D3
:10012000910579F0892B91F4222319F081E090E078
:100130000FC082E090E00CC021110AC082E090E084
:1001400007C0222329F081E090E002C080E090E027
:100150008130910541F08230910549F0009751F4CA
:100160001092BD01089521E02093BD0108951092E1
:10017000BD01089580E090E00895CF93DF93CDB75F
:10018000DEB7C054D1090FB6F894DEBF0FBECDBFA5
:100190001092BC0120E4EAE4F1E0DE011196019046
:1001A0000D922A95E1F78830910508F06FC0FC01A7
:1001B000EA5BFF4F0C94370A81E09091BD019111E9
:1001C00001C080E090E06AC02091BD01222309F4C3
:1001D00065C020B130E02095309525FD5AC05EC045
:1001E0002091AE0121110DC02091AF0121110CC051
:1001F0002091AD0121110BC02091AC0121110AC049
:100200000BC083E090E008C084E090E005C085E08A
:1002100090E002C086E090E0209137012730F1F5B0
:10022000209136012730D1F537C08091BD01882358
:1002300019F082E090E032C081E090E02FC0809120
:10024000BD01882319F082E090E028C081E090E0B1
:1002500025C08091BD01882319F082E090E01EC086
:1002600081E090E01BC08091BD01882319F082E0FD
:1002700090E014C081E090E011C020B130E0209502
:10028000309525FF0BC081E090E008C080E090E051
:1002900005C082E090E002C087E090E0FC01319769
:1002A000E730F10508F094C0E25BFF4F0C94370A89
:1002B00022E020933701209336011092B201109270
:1002C000B00186C021E02093B20182C04091370185
:1002D000E42FF0E032972091360130E021503109CF
:1002E000EE0FFF1FEE0FFF1FEE0FFF1FE20FF31FBA
:1002F000EC0FFD1F218121116BC0433008F468C051
:100300004150409337012091B0012F5F2093B001FD
:100310005FC020913701E0913601F0E0319738E07D
:10032000239FE00DF11D1124EC0FFD1F31813111D0
:100330004FC0273008F04CC02F5F20933701209129
:10034000B0012F5F2093B00143C0E0913701F0E08E
:10035000319720913601EE0FFF1FEE0FFF1FEE0FBA
:10036000FF1FE20FF11DEC0FFD1F3181311130C075
:10037000273070F52F5F209336012091B0012F5F59
:100380002093B00125C0E0913701F0E03197409112
:100390003601242F30E022503109EE0FFF1FEE0FFF
:1003A000FF1FEE0FFF1FE20FF31FEC0FFD1F218158
:1003B00021110EC0433060F041504093360120912E
:1003C000B0012F5F2093B00103C021E02093BC0156
:1003D000C05CDF4F0FB6F894DEBF0FBECDBFDF911C
:1003E000CF910895609338017093390180933A0159
:1003F00090933B016093B3017093B4018093B50176
:100400009093B60108958BE0809381008DE790E092
:10041000909389008093880082E080936F0010920F
:100420008500109284008091380190913901A0914B
:100430003A01B0913B018093B3019093B401A09332
:10044000B501B093B6018FB780688FBF0895109241
:100450008100089581E08093B70108951F920F9263
:100460000FB60F9211240BB60F922F933F934F9319
:100470005F936F937F938F939F93AF93BF93EF930C
:10048000FF938091B3019091B401A091B501B09117
:10049000B6010197A109B1098093B3019093B4010A
:1004A000A093B501B093B601892B8A2B8B2B91F4C5
:1004B0000E942A028091380190913901A0913A015D
:1004C000B0913B018093B3019093B401A093B50127
:1004D000B093B601FF91EF91BF91AF919F918F9132
:1004E0007F916F915F914F913F912F910F900BBE34
:1004F0000F900FBE0F901F90189520E030E014C0B1
:100500002830310530F4992314F4589A07C05898CC
:1005100005C0992314F4589A01C05898880F991F60
:100520005A9A5A982F5F3F4F2031310548F3599A14
:100530005998089580E090E004C058985A9A5A98C3
:10054000019680319105C8F3599A5998089540E071
:1005500050E00CC000002F5F3F4F02C020E030E0B1
:10056000273063E03607B4F34F5F5F4F48175907F2
:10057000ACF30895169888B9179A0000179882E08E
:1005800090E00E94A702089581E00E94BA020895B7
:10059000813120F481580E94BA02089581550E9449
:1005A000BA02089584E690E00E94A70288E30E94C0
:1005B000BA0286E00E94BA028FE00E94BA0281E08D
:1005C0000E94BA028AE090E00E94A7020895169A5B
:1005D00088B9179A0000179881E090E00E94A7025E
:1005E0000895EF92FF920F931F93CF93DF93182FED
:1005F000EB010E94C4020EC001E0010F812F0E9496
:10060000C8027E018FEFE81AF80A88810E94E7028B
:10061000102FE70188818111EFCFDF91CF911F91DA
:100620000F91FF90EF900895EF92FF920F931F9319
:10063000CF93DF93CDB7DEB764970FB6F894DEBFE4
:100640000FBECDBF8C018130910599F01CF400974D
:1006500041F033C082309105B9F083309105F9F053
:100660002CC001E08091BD01811101C000E010E0CB
:1006700026C08091BD01882311F18091B2018823A9
:10068000F1F002E010E01BC08091BD018823B9F0B9
:100690008091BC01882399F003E010E010C08091A4
:1006A000BD01882339F08091BC01811108C000E0B0
:1006B00010E005C000E010E002C000E010E00130F2
:1006C000110579F024F40115110541F02FC0023015
:1006D000110569F00330110521F128C00E94C40200
:1006E00025C06AE871E081E00E94F1021FC080919C
:1006F000B0011F928F938AE991E09F938F93CE016F
:1007000001967C01FF928F930E94B90BB70181E1A2
:100710000E94F1020F900F900F900F900F900F908A
:1007200005C066EA71E081E00E94F102C8016496AA
:100730000FB6F894DEBF0FBECDBFDF91CF911F91F2
:100740000F91FF90EF90089580EC81B987E8809336
:100750007A0080E480937C000895877080648093A1
:100760007C00EAE7F0E080818064808380917A00F9
:1007700084FFFCCFEAE7F0E08081806180832091F4
:1007800078008091790090E0982F8827820F911D42
:1007900008950F931F93CF93DF93EC0180E00E94A5
:1007A000AD038C0181E00E94AD031092AF01109265
:1007B000AE011092AD011092AC01209731F0C13022
:1007C000D10529F0C0E0D0E002C0C1E0D0E0C130E6
:1007D000D105E1F40F3F23E0120720F081E0809380
:1007E000AF0114C00031110520F481E08093AE0107
:1007F0000DC08F3F23E0920720F081E08093AC0191
:1008000005C0409718F481E08093AD01CE01DF91DF
:10081000CF911F910F910895CF93DF93CDB7DEB79E
:1008200060970FB6F894DEBF0FBECDBF90E00CC04E
:10083000292F30E0FE01E20FF31F41E04183FE016A
:10084000E20FF31F11869F5F983090F3FE01E80FCF
:10085000F11D1082FE01E60FF11D81E080872981E4
:100860008A8130E8839FC0011124AC01420F511DE1
:100870002B8130E0922F8827840F951F2C8148E030
:10088000249F800D911D11242D8130E0322F2227CD
:10089000330F330F820F931F2E81E4E02E9F800DC4
:1008A000911D11242F81880F991F880F991F820F86
:1008B000911D880F991F2885820F911D498550E051
:1008C000542F44275295507F480F591F2A8530E0F6
:1008D000322F2227330F420F531F2B8530E030E495
:1008E000239F302D22271124420F531F2C8530E0E7
:1008F000322F2227420F531FAE857D8568892F85B1
:1009000030E0220F331F220F331FE0E0F0E8AE9FEC
:10091000C001AF9F900D1124E0E17E9F800D911DDD
:100920001124840F951F40E8649F200D311D112470
:10093000820F931F60960FB6F894DEBF0FBECDBF37
:10094000DF91CF910895CF93DF93EC018130910532
:1009500041F08230910561F0009789F4C1E0D0E068
:1009600010C08091BD01882361F0C2E0D0E009C0D1
:100970008091BD01811105C0C1E0D0E002C0C0E09E
:10098000D0E0C130D10521F0C230D10531F031C005
:100990008BE69CE20E947D022CC087EF9FEF0E94B5
:1009A0007D028BEE99E70E947D028BEE94EB0E9414
:1009B0007D028BEB9FE30E947D028FEF9FE10E94FF
:1009C0007D028BEC9CE30E947D0289EE9CEF0E94ED
:1009D0007D028EEF9FEF0E947D0260913601809133
:1009E00037010E940C040E947D028BE69CE20E946B
:1009F0007D02CE01DF91CF9108950F931F93CF9386
:100A0000DF93B62FA72FF82FE92F022F132FD42F04
:100A1000C52F04C0062F172FD82FC92F6B2F7A2F61
:100A20008F2F9E2F202F312F4D2F5C2F0E94150AC4
:100A3000B02FA12FFD2FEC2F6115710581059105B8
:100A400049F7602F712F8D2F9C2FDF91CF911F9130
:100A50000F910895CF92DF92EF92FF926B017C018C
:100A60002091B8013091B9014091BA015091BB0178
:100A70000E94400A882309F458C020E030E0A90110
:100A8000C701B6010E94400A811106C0E1E9F0E009
:100A900080818870808305C0E1E9F0E08081836017
:100AA000808328E539E344E75FE3C701B6010E948C
:100AB000400A88233CF48FEF9FEF90939900809336
:100AC000980027C020E034E244EF56E4C701B601A5
:100AD0000E94520B18162CF4109299001092980054
:100AE00018C020E030E040E053E4C701B6010E94A6
:100AF000560B9B01AC0160E074E284EF9AE40E9423
:100B0000440A0E94AC0A6150710970939900609385
:100B100098001092950010929400C092B801D09263
:100B2000B901E092BA01F092BB01FF90EF90DF9023
:100B3000CF9008952F923F924F925F926F927F9243
:100B40008F929F92AF92BF92CF92DF92EF92FF92DD
:100B50000F931F93CF93DF93CDB7DEB7CD51D14025
:100B60000FB6F894DEBF0FBECDBF1C01409024012C
:100B700050902501609026017090270149825A8289
:100B80006B827C828091180190911901A0911A01C9
:100B9000B0911B018D839E83AF83B8874091140170
:100BA00050911501609116017091170149875A877C
:100BB0006B877C87C0901001D0901101E0901201EA
:100BC000F0901301CD86DE86EF86F88A498B5A8B2A
:100BD0006B8B7C8B8D8B9E8BAF8BB88F8090200125
:100BE00090902101A0902201B0902301898E9A8ECD
:100BF000AB8EBC8E1D8E1E8E1F8E18A289A29AA24D
:100C0000ABA2BCA28DA39EA3AFA3B8A749A75AA726
:100C10006BA77CA7CDA6DEA6EFA6F8AA49AB5AAB78
:100C20006BAB7CAB8DAB9EABAFABB8AF49AE5AAE46
:100C30006BAE7CAE21961CAE1DAE1EAE1FAE2197D4
:100C400025964CAE5DAE6EAE7FAE259729968CAFE5
:100C50009DAFAEAFBFAF29972D964CAF5DAF6EAFD6
:100C60007FAF2D976196CCAEDDAEEEAEFFAE619755
:100C700065964CAF5DAF6EAF7FAF659769968CAFF1
:100C80009DAFAEAFBFAF69976D968CAE9DAEAEAE69
:100C9000BFAE6D97A1961CAE1DAE1EAE1FAEA19746
:100CA00080900C0190900D01A0900E01B0900F016A
:100CB000A5968CAE9DAEAEAEBFAEA597A996CCAEB6
:100CC000DDAEEEAEFFAEA997AD964CAF5DAF6EAFA9
:100CD0007FAFAD97E196CCAEDDAEEEAEFFAEE19765
:100CE000E5964CAF5DAF6EAF7FAFE597E9968CAF01
:100CF0009DAFAEAFBFAFE997ED964CAE5DAE6EAEB9
:100D00007FAEED97C358DF4F188219821A821B827B
:100D1000CD57D040009104011091050120910601AA
:100D200030910701CF57DF4F088319832A833B8314
:100D3000C158D040409008015090090160900A01CC
:100D400070900B01CB57DF4F488259826A827B82B9
:100D5000C558D040C757DF4F88829982AA82BB828C
:100D6000C958D040C357DF4F488259826A827B827C
:100D7000CD58D040CF56DF4F88829982AA82BB825D
:100D8000C159D040CB56DF4FC882D982EA82FB825C
:100D9000C559D040C756DF4F88839983AA83BB8348
:100DA000C959D040C356DF4F488359836A837B8338
:100DB000CD59D040CF55DF4F488259826A827B821D
:100DC000C15AD040CB55DF4F88829982AA82BB821C
:100DD000C55AD040C755DF4FC882D982EA82FB820C
:100DE000C95AD040C355DF4F88829982AA82BB82FC
:100DF000CD5AD040CF54DF4FC882D982EA82FB82DD
:100E0000C15BD040CB54DF4F488359836A837B83D7
:100E1000C55BD040C754DF4F88839983AA83BB83C7
:100E2000C95BD040C354DF4F188219821A821B82DB
:100E3000CD5BD040CF53DF4F088319832A833B8398
:100E4000C15CD040CB53DF4F488259826A827B829B
:100E5000C55CD040C753DF4F88829982AA82BB828B
:100E6000C95CD040C353DF4F488259826A827B827B
:100E7000CD5CD040CF52DF4F88829982AA82BB825C
:100E8000C15DD040CB52DF4FC882D982EA82FB825B
:100E9000C55DD040C752DF4F88839983AA83BB8347
:100EA000C95DD040C352DF4F488359836A837B8337
:100EB000CD5DD040CF51DF4F488259826A827B821C
:100EC000C15ED04090913401CB51DF4F9883C55E15
:100ED000D040CA51DF4F9883C65ED040C951DF4F22
:100EE0009883C75ED040C851DF4F9883C85ED0401A
:100EF000C751DF4F9883C95ED040C651DF4F9883FA
:100F0000CA5ED04080913101C551DF4F8883CB5EEE
:100F1000D040C451DF4F9883CC5ED040C351DF4FE7
:100F20009883CD5ED040C251DF4F9883CE5ED040D3
:100F3000C151DF4F9883CF5ED040C051DF4F9883BF
:100F4000C05FD040CF50DF4F9883C15FD040CE50BC
:100F5000DF4F9883C25FD040CD50DF4F8883C35F9F
:100F6000D040CC50DF4F9883C45FD040CB50DF4F90
:100F70009883C55FD040CA50DF4F9883C65FD0408A
:100F8000C950DF4F9883C75FD040C850DF4F988368
:100F9000C85FD040C750DF4F9883C95FD040C6506C
:100FA000DF4F9883CA5FD040C550DF4F8883CB5F47
:100FB000D040C450DF4F9883CC5FD040C350DF4F48
:100FC0009883CD5FD040C250DF4F9883CE5FD04032
:100FD000C150DF4F9883CF5FD040C050DF4F988320
:100FE000C050D140CF5FDE4F9883C150D140CE5F1B
:100FF000DE4F9883C250D140CD5FDE4F8883C3500F
:10100000D140CC5FDE4F9883C450D140CB5FDE4FE0
:101010009883C550D140CA5FDE4F9883C650D140F7
:10102000C95FDE4F9883C750D140C85FDE4F9883B9
:10103000C850D140C75FDE4F9883C950D140C65FCA
:10104000DE4F9883CA50D14030913201C55FDE4FE8
:101050003883CB50D14020913301C45FDE4F2883C9
:10106000CC50D140C35FDE4F9883CD50D140C25F9A
:10107000DE4F9883CE50D140C15FDE4F9883CF5072
:10108000D140C05FDE4F9883C051D140CF5EDE4F6C
:101090009883C151D140CE5EDE4F9883C251D1407A
:1010A000CD5EDE4F8883C351D140CC5EDE4F988346
:1010B000C451D140CB5EDE4F9883C551D140CA5E4A
:1010C000DE4F9883C651D140C95EDE4F9883C75129
:1010D000D140C85EDE4F9883C851D140C75EDE4F15
:1010E0009883C951D140C65EDE4F9883CA51D14022
:1010F000C55EDE4F3883CB51D140C45EDE4F2883BE
:10110000CC51D14080913001C35EDE4F8883CD51F8
:10111000D1402114310429F081E02816310459F01E
:1011200022C080B190E08095909583FF24C0222456
:101130002394312C20C080B190E08095909583FD60
:1011400015C08091AB01909135018917A0F0E5EEB3
:10115000F0E0EC0FFD1FE80FF11D90818091AA01D6
:10116000891738F408C0212C312C05C0212C312CD2
:1011700002C0212C312C2114310429F081E02816E1
:10118000310459F03EC060E070E0CB010E942A05B6
:101190001092AA011092AB0139C02091AB01822FAD
:1011A00090E0E5EEF0E0EC0FFD1FE80FF91F408145
:1011B0003091AA01341770F4880F991F880F991F76
:1011C000FE01E80FF91F61817281838194810E9481
:1011D0002A0511C02F5F2093AB011092AA01FE01D6
:1011E00084E0289FE00DF11D1124618172818381CB
:1011F00094810E942A058091AA018F5F8093AA01A1
:1012000005C060E070E0CB010E942A05C101C35E09
:10121000DE4F0FB6F894DEBF0FBECDBFDF91CF918A
:101220001F910F91FF90EF90DF90CF90BF90AF9004
:101230009F908F907F906F905F904F903F902F90F6
:10124000089580E4809390008BE08093910060E0AB
:1012500070E0CB010E942A05089510929000109230
:1012600091000895CF93DF93CDB7DEB7C254D10973
:101270000FB6F894DEBF0FBECDBF80EC81B98FE30F
:1012800082B98FEF84B915B887B918B88AB91BB875
:10129000198284E190E0A0E0B0E08A839B83AC8374
:1012A000BD831E821F821886198629EC33E03B8796
:1012B0002A871C868D879E87AF87B88B198A1A8AE2
:1012C0001B8A1C8A27E830E03E8B2D8B1F8A44E660
:1012D00050E060E070E0488F598F6A8F7B8F1C8EE2
:1012E0001D8E1E8E1F8E2DEB30E039A328A31AA26F
:1012F0008BA39CA3ADA3BEA31FA218A619A61AA6D2
:1013000083EA94E09CA78BA71DA688EC90E0A0E060
:10131000B0E08EA79FA7A8ABB9AB1AAA1BAA1CAABC
:101320001DAA84E193E09FAB8EAB18AE80EA90E0FB
:10133000A0E0B0E089AF9AAFABAFBCAF21961CAED6
:101340001DAE1EAE1FAE21978AE995E023969FAF92
:101350008EAF23976AE070E080E090E00E94F20197
:101360000E9403020E94D2020E94A4030E9421094B
:1013700060E070E0CB010E942A0510E04CC0E12E35
:10138000F12CE1E0F0E0EC0FFD1F8BE0189FE00D89
:10139000F11D11244581568167817085818192817B
:1013A000A381B481481759076A077B07E1F48BE0F2
:1013B0008E9D60018F9DD00C1124A1E0B0E0AC0F98
:1013C000BD1FCA0EDB1ED6011996ED91FC911A972E
:1013D0008C91992787FD90950995F6018083158258
:1013E0001682178210868BE08E9DF0018F9DF00D86
:1013F000112481E090E08C0F9D1FE80FF91F85817B
:101400009681A781B0850A96A11DB11D858396831B
:10141000A783B0871F5F163008F4B1CF8091B70162
:101420008823E1F31092B701A8CFA1E21A2EAA1BDC
:10143000BB1BFD010DC0AA1FBB1FEE1FFF1FA21784
:10144000B307E407F50720F0A21BB30BE40BF50B81
:10145000661F771F881F991F1A9469F7609570950A
:10146000809590959B01AC01BD01CF010895EE0FD1
:10147000FF1F0024001C0BBE0790F691E02D09947D
:101480009CD008F481E008950CD0D2C0CAD040F0BE
:10149000C1D030F021F45F3F19F0B3C05111FCC04E
:1014A000B6C0D7D098F39923C9F35523B1F3951B50
:1014B000550BBB27AA2762177307840738F09F5F75
:1014C0005F4F220F331F441FAA1FA9F333D00E2EE4
:1014D0003AF0E0E830D091505040E695001CCAF751
:1014E00029D0FE2F27D0660F771F881FBB1F261716
:1014F00037074807AB07B0E809F0BB0B802DBF01E9
:10150000FF2793585F4F2AF09E3F510568F079C03E
:10151000C3C05F3FECF3983EDCF386957795679503
:10152000B795F7959F5FC9F7880F911D9695879599
:1015300097F90895E1E0660F771F881FBB1F6217B8
:1015400073078407BA0720F0621B730B840BBA0B76
:10155000EE1F88F7E095089504D06894B1119CC0FF
:1015600008957FD088F09F5790F0B92F9927B751F1
:10157000A0F0D1F0660F771F881F991F1AF0BA9557
:10158000C9F712C0B13081F086D0B1E0089583C0B0
:10159000672F782F8827B85F39F0B93FCCF386954D
:1015A00077956795B395D9F73EF4909580957095AA
:1015B00061957F4F8F4F9F4F0895990F0008550FEA
:1015C000AA0BE0E8FEEF16161706E807F907C0F0C9
:1015D00012161306E407F50798F0621B730B840BD1
:1015E000950B39F40A2661F0232B242B252B21F4AB
:1015F00008950A2609F4A140A6958FEF811D811D4B
:10160000089597F99F6780E870E060E008959FEF84
:1016100080EC089500240A94161617061806090689
:10162000089500240A941216130614060506089558
:10163000092E0394000C11F4882352F0BB0F40F4E0
:10164000BF2B11F460FF04C06F5F7F4F8F4F9F4F20
:10165000089557FD9058440F551F59F05F3F71F0A2
:101660004795880F97FB991F61F09F3F79F0879509
:101670000895121613061406551FF2CF4695F1DF92
:1016800008C0161617061806991FF1CF8695710522
:10169000610508940895E894BB2766277727CB0156
:1016A00097F908958ADF08F48FEF08950BD0C0CF23
:1016B000B1DF28F0B6DF18F0952309F0A2CFA7CF4D
:1016C0001124EACFC6DFA0F3959FD1F3950F50E028
:1016D000551F629FF001729FBB27F00DB11D639FE4
:1016E000AA27F00DB11DAA1F649F6627B00DA11D8A
:1016F000661F829F2227B00DA11D621F739FB00D30
:10170000A11D621F839FA00D611D221F749F33279F
:10171000A00D611D231F849F600D211D822F762F38
:101720006A2F11249F5750408AF0E1F088234AF035
:10173000EE0FFF1FBB1F661F771F881F9150504081
:10174000A9F79E3F510570F05CCFA6CF5F3FECF349
:10175000983EDCF3869577956795B795F795E7956D
:101760009F5FC1F7FE2B880F911D9695879597F97E
:1017700008950F931F93CF93DF93CDB7DEB72E97C6
:101780000FB6F894DEBF0FBECDBF0D891E8986E06F
:101790008C831A8309838FEF9FE79E838D83AE012D
:1017A000475E5F4F6F89788DCE0101960E94E90BED
:1017B0002F813885F801E20FF31F10822E960FB6A5
:1017C000F894DEBF0FBECDBFDF91CF911F910F9177
:1017D00008952F923F924F925F926F927F928F92D5
:1017E0009F92AF92BF92CF92DF92EF92FF920F93B0
:1017F0001F93CF93DF93CDB7DEB72C970FB6F89436
:10180000DEBF0FBECDBF7C016B018A01FC011782D8
:101810001682838181FFBDC1CE0101964C01F70183
:101820009381F60193FD859193FF81916F01882348
:1018300009F4ABC1853239F493FD859193FF819111
:101840006F01853229F4B70190E00E94FA0DE7CFCD
:10185000512C312C20E02032A0F48B3269F030F48E
:10186000803259F0833269F420612CC08D3239F016
:10187000803339F4216026C02260246023C02860B0
:1018800021C027FD27C030ED380F3A3078F426FF0D
:1018900006C0FAE05F9E300D1124532E13C08AE07B
:1018A000389E300D1124332E20620CC08E3221F46C
:1018B00026FD6BC1206406C08C3611F4206802C07E
:1018C000883641F4F60193FD859193FF81916F0174
:1018D0008111C1CF982F9F7D9554933028F40C5FD0
:1018E0001F4FFFE3F9830DC0833631F0833771F06A
:1018F000833509F05BC022C0F801808189830E5FC7
:101900001F4F44244394512C540115C03801F2E078
:101910006F0E711CF801A080B18026FF03C0652DF9
:1019200070E002C06FEF7FEFC5012C870E94EF0DC2
:101930002C0183012C852F77222E17C03801F2E06D
:101940006F0E711CF801A080B18026FF03C0652DC9
:1019500070E002C06FEF7FEFC5012C870E94E40D9D
:101960002C012C852068222E830123FC1BC0832D93
:1019700090E048165906B0F4B70180E290E00E946A
:10198000FA0D3A94F4CFF50127FC859127FE819159
:101990005F01B70190E00E94FA0D31103A94F1E036
:1019A0004F1A51084114510471F7E5C0843611F003
:1019B000893639F5F80127FF07C06081718182817E
:1019C00093810C5F1F4F08C060817181882777FD6C
:1019D0008095982F0E5F1F4F2F76722E97FF09C0AC
:1019E00090958095709561957F4F8F4F9F4F2068A0
:1019F000722E2AE030E0A4010E94320EA82EA81810
:101A000044C0853729F42F7EB22E2AE030E025C06D
:101A1000F22FF97FBF2E8F36C1F018F4883579F098
:101A2000B4C0803719F0883721F0AFC02F2F206164
:101A3000B22EB4FE0DC08B2D8460B82E09C024FFD9
:101A40000AC09F2F9660B92E06C028E030E005C07E
:101A500020E130E002C020E132E0F801B7FE07C02B
:101A600060817181828193810C5F1F4F06C060810C
:101A7000718180E090E00E5F1F4FA4010E94320E42
:101A8000A82EA818FB2DFF777F2E76FE0BC0372DD2
:101A90003E7FA51450F474FE0AC072FC08C0372DB6
:101AA0003E7E05C0BA2C372D03C0BA2C01C0B52C20
:101AB00034FF0DC0FE01EA0DF11D8081803311F469
:101AC000397E09C032FF06C0B394B39404C0832F9B
:101AD000867809F0B39433FD13C030FF06C05A2C4A
:101AE000B31418F4530C5B18B32CB31468F4B70197
:101AF00080E290E03C870E94FA0DB3943C85F5CFDC
:101B0000B31410F43B1801C0312C34FF12C0B701DC
:101B100080E390E03C870E94FA0D3C8532FF17C0BD
:101B200031FD03C088E790E002C088E590E0B7018E
:101B30000CC0832F867859F031FF02C08BE201C0C0
:101B400080E237FD8DE2B70190E00E94FA0DA51406
:101B500038F4B70180E390E00E94FA0D5A94F7CF71
:101B6000AA94F401EA0DF11D8081B70190E00E9472
:101B7000FA0DA110F5CF332009F451CEB70180E260
:101B800090E00E94FA0D3A94F6CFF7018681978192
:101B900002C08FEF9FEF2C960FB6F894DEBF0FBEFA
:101BA000CDBFDF91CF911F910F91FF90EF90DF900C
:101BB000CF90BF90AF909F908F907F906F905F90ED
:101BC0004F903F902F900895FC0105906150704018
:101BD0000110D8F7809590958E0F9F1F0895FC01F6
:101BE0006150704001900110D8F7809590958E0F4C
:101BF0009F1F08950F931F93CF93DF93FB012381C2
:101C000021FD03C08FEF9FEF28C022FF16C0468141
:101C10005781248135814217530744F4A081B18153
:101C20009D012F5F3F4F318320838C932681378125
:101C30002F5F3F4F3783268310C0EB01092F182FEA
:101C40000084F185E02D0995892BE1F68E819F8135
:101C500001969F838E83812F902FDF91CF911F91CB
:101C60000F910895FA01AA27283051F1203181F10E
:101C7000E8946F936E7F6E5F7F4F8F4F9F4FAF4F94
:101C8000B1E03ED0B4E03CD0670F781F891F9A1FA7
:101C9000A11D680F791F8A1F911DA11D6A0F711D5B
:101CA000811D911DA11D20D009F468943F912AE067
:101CB000269F11243019305D3193DEF6CF0108954F
:101CC000462F4770405D4193B3E00FD0C9F7F6CF80
:101CD000462F4F70405D4A3318F0495D31FD405248
:101CE000419302D0A9F7EACFB4E0A69597958795DE
:101CF00077956795BA95C9F70097610571050895BD
:101D00009B01AC010A2E0694579547953795279568
:101D1000BA95C9F7620F731F841F951FA01D089500
:041D2000F894FFCF65
:101D24005CFF4344719D2E4400D024441FD51244CB
:101D340000D00244A4F0F6430000DC430000C44396
:101D4400719DAE43A4D0A4437BD49243A4D08243D8
:101D5400100C0804023A0202010000000000000214
:101D640000000000760000000000010101010101F3
:101D74000101010001010000000101000000000157
:101D84000001010100010100000101010001010045
:101D94000101010000000000000101000100000138
:101DA40000010101010101010001507265737320FA
:101DB400475245454E206F6E65004375725F5374FC
:0A1DC40065703A25640077696E002F
:00000001FF
