:100000000C944E000C946D000C946D000C946D00DB
:100010000C946D000C946D000C946D000C946D00AC
:100020000C946D000C946D000C946D000C946D009C
:100030000C946D000C94A6010C946D000C946D0052
:100040000C946D000C946D000C946D000C946D007C
:100050000C946D000C946D000C946D000C946D006C
:100060000C946D000C946D000C946D000C946D005C
:100070000C946D000C946D000C946D000C946D004C
:100080000C946D000C946D000C946D00C200CA00BD
:10009000D200080112011C012601BF0011241FBE5D
:1000A000CFEFD0E4DEBFCDBF11E0A0E0B1E0E4EBE4
:1000B000FAE000E00BBF02C007900D92A032B1073A
:1000C000D9F711E0A0E2B1E001C01D92A733B1075A
:1000D000E1F70E9467040C9458050C940000CF933C
:1000E000C82F8A3019F48DE00E946F009091C000F3
:1000F00095FFFCCFC093C60080E090E0CF910895BB
:1001000020B12295217020932C018130910569F056
:100110008230910579F0892B91F4222319F081E046
:1001200090E00FC082E090E00CC021110AC082E094
:1001300090E007C0222329F081E090E002C080E037
:1001400090E08130910541F08230910549F00097AF
:1001500051F410922B01089521E020932B01089572
:1001600010922B01089580E090E008958830910569
:1001700008F076C0FC01EA5BFF4F0C944F0581E06C
:1001800090E070C081E090912B01911101C080E05E
:1001900090E068C020912B01222309F463C082E023
:1001A00090E060C020912201211103C0482F392F17
:1001B00002C043E030E050912301552311F044E0A8
:1001C00030E060912101662311F045E030E070914C
:1001D0002001772311F046E030E0211109C05111D0
:1001E0000AC061110BC0772361F061E070E00BC0C1
:1001F00061E070E008C061E070E005C061E070E0BF
:1002000002C060E070E0672B69F1842F932F2AC051
:1002100080912B01882319F082E090E023C081E0D7
:1002200090E020C080912B01882319F082E090E0BB
:1002300019C081E090E016C080912B01882319F04D
:1002400082E090E00FC081E090E00CC080912B0133
:10025000882319F082E090E005C081E090E002C0C0
:1002600080E090E084309105E9F03CF48130910524
:1002700059F08330910571F0089585309105D1F0E2
:1002800086309105F9F0089522E020930101209332
:1002900000010895209101012230D8F021502093CF
:1002A0000101089520910101293098F42F5F2093D6
:1002B0000101089520910001293058F42F5F209307
:1002C0000001089520910001223018F02150209360
:1002D000000108956093020170930301809304016B
:1002E0009093050160932601709327018093280164
:1002F0009093290108958BE0809381008DE790E031
:10030000909389008093880082E080936F00109220
:100310008500109284008091020190910301A091C8
:100320000401B09105018093260190932701A093C9
:100330002801B09329018FB780688FBF089510926C
:100340008100089581E080932A0108951F920F9201
:100350000FB60F9211240BB60F922F933F934F932A
:100360005F936F937F938F939F93AF93BF93EF931D
:10037000FF938091260190912701A0912801B091CF
:1003800029010197A109B1098093260190932701C2
:10039000A0932801B0932901892B8A2B8B2B91F4F0
:1003A0000E94A2018091020190910301A091040199
:1003B000B09105018093260190932701A093280115
:1003C000B0932901FF91EF91BF91AF919F918F91D0
:1003D0007F916F915F914F913F912F910F900BBE45
:1003E0000F900FBE0F901F90189520E030E014C0C2
:1003F0002830310530F4992314F4589A07C05898DE
:1004000005C0992314F4589A01C05898880F991F71
:100410005A9A5A982F5F3F4F2031310548F3599A25
:100420005998089580E090E004C058985A9A5A98D4
:10043000019680319105C8F3599A5998089540E082
:1004400050E00CC000002F5F3F4F02C020E030E0C2
:10045000273063E03607B4F34F5F5F4F4817590703
:10046000ACF30895169888B9179A0000179882E09F
:1004700090E00E941F02089581E00E9432020895D8
:10048000813120F481580E943202089581550E94E2
:100490003202089584E690E00E941F0288E30E94E1
:1004A000320286E00E9432028FE00E94320281E036
:1004B0000E9432028AE090E00E941F020895169A7C
:1004C00088B9179A0000179881E090E00E941F02F7
:1004D0000895EF92FF920F931F93CF93DF93182FFE
:1004E000EB010E943C020EC001E0010F812F0E942F
:1004F00040027E018FEFE81AF80A88810E945F02AD
:10050000102FE70188818111EFCFDF91CF911F91EB
:100510000F91FF90EF900895CF93DF93009719F01C
:10052000019749F010C0C1E080912B01811101C0F9
:10053000C0E0D0E00AC0C1E080912B01811101C070
:10054000C0E0D0E002C0C0E0D0E0209721F0C13090
:10055000D10521F008C00E943C0205C064E171E0B1
:1005600081E00E946902CE01DF91CF91089580EC75
:1005700081B987E880937A0080E480937C000895B5
:100580008770806480937C00EAE7F0E0808180647B
:10059000808380917A0084FFFCCFEAE7F0E08081DD
:1005A00080618083209178008091790090E0982F7D
:1005B0008827820F911D08950F931F93CF93DF9388
:1005C000EC0180E00E94C0028C0181E00E94C00228
:1005D000209731F0C130D10529F0C0E0D0E002C051
:1005E000C1E0D0E0209721F0C130D10551F02AC000
:1005F00010922301109222011092210110922001E9
:1006000021C00F3F23E0120728F021E020932301AF
:10061000109222010031110528F421E020932201DB
:10062000109223018F3F23E0920728F010922101BE
:1006300021E020932001409728F41092200181E0CE
:1006400080932101CE01DF91CF911F910F910895E9
:10065000CF93DF93CDB7DEB760970FB6F894DEBFC8
:100660000FBECDBF90E00CC0292F30E0FE01E20F9D
:10067000F31F41E04183FE01E20FF31F11869F5FEC
:10068000983090F3FE01E80FF11D1082FE01E60F95
:10069000F11D81E0808729818A8130E8839FC00134
:1006A0001124AC01420F511D2B8130E0922F88277D
:1006B000840F951F2C8148E0249F800D911D1124EB
:1006C0002D8130E0322F2227330F330F820F931FFB
:1006D0002E81E4E02E9F800D911D11242F81880F23
:1006E000991F880F991F820F911D880F991F2885C8
:1006F000820F911D498550E0542F44275295507F19
:10070000480F591F2A8530E0322F2227330F420F1E
:10071000531F2B8530E030E4239F302D22271124F6
:10072000420F531F2C8530E0322F2227420F531FD8
:10073000AE857D8568892F8530E0220F331F220F1B
:10074000331FE0E0F0E8AE9FC001AF9F900D112491
:10075000E0E17E9F800D911D1124840F951F40E8DC
:10076000649F200D311D1124820F931F60960FB6D8
:10077000F894DEBF0FBECDBFDF91CF910895CF9328
:10078000DF93EC018130910541F08230910561F0F9
:10079000009789F4C1E0D0E010C080912B0188233C
:1007A00061F0C2E0D0E009C080912B01811105C049
:1007B000C1E0D0E002C0C0E0D0E0C130D10549F0D6
:1007C000C230D10549F1209709F050C00E941202B1
:1007D0004DC087EF9FEF0E94F5018BEE98E30E94DA
:1007E000F5018BEA9CE30E94F5018BEE94E30E94F5
:1007F000F5018BEE9CE10E94F5018BEC9CE30E94DD
:10080000F50189EE9CE30E94F5018EEF9FEF0E94B7
:10081000F5010E9412022AC087EF9FEF0E94F501A6
:100820008BEE99E70E94F5018BEE94EB0E94F501A7
:100830008BEB9FE30E94F5018FEF9FE10E94F50192
:100840008BEC9CE30E94F50189EE9CEF0E94F50180
:100850008EEF9FEF0E94F5016091000180910101F0
:100860000E9428030E94F5010E941202CE01DF912E
:10087000CF9108950F931F93CF93DF93B62FA72F98
:10088000F82FE92F022F132FD42FC52F04C0062FC6
:10089000172FD82FC92F6B2F7A2F8F2F9E2F202FF6
:1008A000312F4D2F5C2F0E942D05B02FA12FFD2F32
:1008B000EC2F611571058105910549F7602F712FA6
:1008C0008D2F9C2FDF91CF911F910F910895CF9382
:1008D000DF93CDB7DEB7E7970FB6F894DEBF0FBE54
:1008E000CDBF80EC81B98FE382B98FEF84B915B8A1
:1008F00087B918B88AB91BB8198284E190E0A0E0E2
:10090000B0E08A839B83AC83BD831E821F821886DE
:1009100019862CED32E03B872A871C868D879E87BF
:10092000AF87B88B198A1A8A1B8A1C8A20E830E0A4
:100930003E8B2D8B1F8A48EC50E060E070E0488FC2
:10094000598F6A8F7B8F1C8E1D8E1E8E1F8E26EBFD
:1009500030E039A328A31AA28BA39CA3ADA3BEA306
:100960001FA218A619A61AA68FEB93E09CA78BA727
:100970001DA684EF91E0A0E0B0E08EA79FA7A8ABF2
:10098000B9AB1AAA1BAA1CAA1DAA8CE892E09FABBD
:100990008EAB6AE070E080E090E00E946A010E9405
:1009A0007B010E944A020E94B70210E04CC0E12E77
:1009B000F12CE1E0F0E0EC0FFD1F8BE0189FE00D63
:1009C000F11D112445815681678170858181928155
:1009D000A381B481481759076A077B07E1F48BE0CC
:1009E0008E9D60018F9DD00C1124A1E0B0E0AC0F72
:1009F000BD1FCA0EDB1ED6011996ED91FC911A9708
:100A00008C91992787FD90950995F6018083158231
:100A10001682178210868BE08E9DF0018F9DF00D5F
:100A2000112481E090E08C0F9D1FE80FF91F858154
:100A30009681A781B0850A96A11DB11D85839683F5
:100A4000A783B0871F5F153008F4B1CF80912A01CA
:100A50008823E1F310922A01A8CFA1E21A2EAA1B43
:100A6000BB1BFD010DC0AA1FBB1FEE1FFF1FA2175E
:100A7000B307E407F50720F0A21BB30BE40BF50B5B
:100A8000661F771F881F991F1A9469F760957095E4
:100A9000809590959B01AC01BD01CF010895EE0FAB
:100AA000FF1F0024001C0BBE0790F691E02D099457
:040AB000F894FFCFE8
:100AB40002020100000000000002000000006F00BC
:100AC4000000000047414D4520535441525400005A
:00000001FF
