:100000000C9446000C9465000C9465000C946500FB
:100010000C9465000C9465000C9465000C946500CC
:100020000C9465000C9465000C9465000C946500BC
:100030000C9465000C94B4000C9465000C9465005D
:100040000C9465000C9465000C9465000C9465009C
:100050000C9465000C9465000C9465000C9465008C
:100060000C9465000C9465000C9465000C9465007C
:100070000C9465000C9465000C9465000C9465006C
:100080000C9465000C9465000C94650011241FBE4F
:10009000CFEFD0E4DEBFCDBF11E0A0E0B1E0E6E9F4
:1000A000F8E000E00BBF02C007900D92AA34B10740
:1000B000D9F711E0AAE4B1E001C01D92A735B1075C
:1000C000E1F70E94A7020C9449040C940000CF931E
:1000D000C82F8A3019F48DE00E9467009091C0000B
:1000E00095FFFCCFC093C60080E090E0CF910895CB
:1000F00060933701709338018093390190933A01EE
:1001000060934C0170934D0180934E0190934F0189
:1001100008958BE0809381008DE790E090938900B3
:100120008093880082E080936F0010928500109287
:1001300084008091370190913801A0913901B091EC
:100140003A0180934C0190934D01A0934E01B093DE
:100150004F018FB780688FBF089510928100089576
:1001600081E08093500108951F920F920FB60F9275
:1001700011240BB60F922F933F934F935F936F937E
:100180007F938F939F93AF93BF93EF93FF93809150
:100190004C0190914D01A0914E01B0914F010197FA
:1001A000A109B10980934C0190934D01A0934E0198
:1001B000B0934F01892B8A2B8B2B91F40E94B000B6
:1001C0008091370190913801A0913901B0913A01A5
:1001D00080934C0190934D01A0934E01B0934F0139
:1001E000FF91EF91BF91AF919F918F917F916F910F
:1001F0005F914F913F912F910F900BBE0F900FBECB
:100200000F901F901895CF92DF92EF92FF926B01A3
:100210007C01209151013091520140915301509144
:1002200054010E94D002882309F458C020E030E035
:10023000A901C701B6010E94D002811106C0E1E9FF
:10024000F0E080818870808305C0E1E9F0E0808182
:100250008360808328E539E344E75FE3C701B601A3
:100260000E94D00288233CF48FEF9FEF9093990077
:100270008093980027C020E034E244EF56E4C701A1
:10028000B6010E94E20318162CF410929900109205
:10029000980018C020E030E040E053E4C701B60108
:1002A0000E94E6039B01AC0160E074E284EF9AE4F3
:1002B0000E94D4020E943C0361507109709399001E
:1002C000609398001092950010929400C092510192
:1002D000D0925201E0925301F0925401FF90EF90BE
:1002E000DF90CF90089580E4809390008BE080931E
:1002F000910060E070E0CB010E940301089510922C
:1003000090001092910008950F931F93CF93DF9365
:10031000CDB7DEB7C154D1090FB6F894DEBF0FBE1A
:10032000CDBF8091010190910201A0910301B09194
:10033000040189839A83AB83BC83809105019091EA
:100340000601A0910701B09108018D839E83AF83C0
:10035000B8878091190190911A01A0911B01B09169
:100360001C0189879A87AB87BC8780911501909182
:100370001601A0911701B09118018D879E87AF8754
:10038000B88B8091090190910A01A0910B01B09165
:100390000C01898B9A8BAB8BBC8B80910D0190915A
:1003A0000E01A0910F01B09110018D8B9E8BAF8B30
:1003B000B88F4091210150912201609123017091E9
:1003C0002401498F5A8F6B8F7C8F40911D01509172
:1003D0001E0160911F01709120014D8F5E8F6F8F04
:1003E00078A389A39AA3ABA3BCA380911101909198
:1003F0001201A0911301B09114018DA39EA3AFA38C
:10040000B8A7009125011091260120912701309174
:10041000280109A71AA72BA73CA74DA75EA76FA77E
:1004200078AB89AB9AABABABBCAB909133019DABD6
:100430009EAB809132018FAB88AF99AF9AAF8BAFF3
:100440008CAF9DAF9EAF8FAF21968FAF21978091DC
:10045000310122968FAF229780B180915501909102
:100460005601009719F0019731F018C0109256010B
:100470001092550117C080914B019091000189178E
:1004800088F0FE01E80FF11D95A980914A018917B6
:1004900048F0109256011092550104C01092560176
:1004A000109255018091550190915601009719F0D5
:1004B000019759F03BC060E070E0CB010E9403015E
:1004C00010924A0110924B0136C020914B01822FAD
:1004D00090E0FE01E80FF91F45A930914A01341759
:1004E00070F4880F991F880F991FFE01E80FF91FFC
:1004F00061817281838194810E94030111C02F5F09
:1005000020934B0110924A01FE0184E0289FE00DE8
:10051000F11D112461817281838194810E94030104
:1005200080914A018F5F80934A0105C060E070E0CE
:10053000CB010E940301CF5BDF4F0FB6F894DEBF03
:100540000FBECDBFDF91CF911F910F91089511B8CC
:100550008FEF82B984B915B80E94730160E070E032
:10056000CB010E940301609135017091360180E05A
:1005700090E00E9478000E9489001092560110922B
:1005800055011092500110924A0110924B010E94A5
:100590008401809150018823E1F310925001F7CF3C
:1005A0009CD008F481E008950CD0D2C0CAD040F0AD
:1005B000C1D030F021F45F3F19F0B3C05111FCC03D
:1005C000B6C0D7D098F39923C9F35523B1F3951B3F
:1005D000550BBB27AA2762177307840738F09F5F64
:1005E0005F4F220F331F441FAA1FA9F333D00E2ED3
:1005F0003AF0E0E830D091505040E695001CCAF740
:1006000029D0FE2F27D0660F771F881FBB1F261704
:1006100037074807AB07B0E809F0BB0B802DBF01D7
:10062000FF2793585F4F2AF09E3F510568F079C02D
:10063000C3C05F3FECF3983EDCF3869577956795F2
:10064000B795F7959F5FC9F7880F911D9695879588
:1006500097F90895E1E0660F771F881FBB1F6217A7
:1006600073078407BA0720F0621B730B840BBA0B65
:10067000EE1F88F7E095089504D06894B1119CC0EE
:1006800008957FD088F09F5790F0B92F9927B751E0
:10069000A0F0D1F0660F771F881F991F1AF0BA9546
:1006A000C9F712C0B13081F086D0B1E0089583C09F
:1006B000672F782F8827B85F39F0B93FCCF386953C
:1006C00077956795B395D9F73EF490958095709599
:1006D00061957F4F8F4F9F4F0895990F0008550FD9
:1006E000AA0BE0E8FEEF16161706E807F907C0F0B8
:1006F00012161306E407F50798F0621B730B840BC0
:10070000950B39F40A2661F0232B242B252B21F499
:1007100008950A2609F4A140A6958FEF811D811D39
:10072000089597F99F6780E870E060E008959FEF73
:1007300080EC089500240A94161617061806090678
:10074000089500240A941216130614060506089547
:10075000092E0394000C11F4882352F0BB0F40F4CF
:10076000BF2B11F460FF04C06F5F7F4F8F4F9F4F0F
:10077000089557FD9058440F551F59F05F3F71F091
:100780004795880F97FB991F61F09F3F79F08795F8
:100790000895121613061406551FF2CF4695F1DF81
:1007A00008C0161617061806991FF1CF8695710511
:1007B000610508940895E894BB2766277727CB0145
:1007C00097F908958ADF08F48FEF08950BD0C0CF12
:1007D000B1DF28F0B6DF18F0952309F0A2CFA7CF3C
:1007E0001124EACFC6DFA0F3959FD1F3950F50E017
:1007F000551F629FF001729FBB27F00DB11D639FD3
:10080000AA27F00DB11DAA1F649F6627B00DA11D78
:10081000661F829F2227B00DA11D621F739FB00D1E
:10082000A11D621F839FA00D611D221F749F33278E
:10083000A00D611D231F849F600D211D822F762F27
:100840006A2F11249F5750408AF0E1F088234AF024
:10085000EE0FFF1FBB1F661F771F881F9150504070
:10086000A9F79E3F510570F05CCFA6CF5F3FECF338
:10087000983EDCF3869577956795B795F795E7955C
:100880009F5FC1F7FE2B880F911D9695879597F96D
:060890000895F894FFCF6B
:100896000C5CFF4344719D2E4400D024441FD512A6
:1008A6004400D00244A4F0F6430000DC430000C438
:1008B60043719DAE43A4D0A4437BD49243A4D0827B
:1008C60043100806021400010000000000000200A8
:0A08D60000000067000000000000B1
:00000001FF
