:100000000C9446000C9465000C9465000C946500FB
:100010000C9465000C9465000C9465000C946500CC
:100020000C9465000C9465000C9465000C946500BC
:100030000C9465000C94B4000C9465000C9465005D
:100040000C9465000C9465000C9465000C9465009C
:100050000C9465000C9465000C9465000C9465008C
:100060000C9465000C9465000C9465000C9465007C
:100070000C9465000C9465000C9465000C9465006C
:100080000C9465000C9465000C94650011241FBE4F
:10009000CFEFD0E4DEBFCDBF11E0A0E0B1E0E2E3FE
:1000A000FAE000E00BBF02C007900D92AA31B10741
:1000B000D9F711E0AAE1B1E001C01D92AF31B1075B
:1000C000E1F70E94BF010C9417050C940000CF9338
:1000D000C82F8A3019F48DE00E9467009091C0000B
:1000E00095FFFCCFC093C60080E090E0CF910895CB
:1000F00060930001709301018093020190930301CA
:1001000060931A0170931B0180931C0190931D0151
:1001100008958BE0809381008DE790E090938900B3
:100120008093880082E080936F0010928500109287
:1001300084008091000190910101A0910201B09191
:10014000030180931A0190931B01A0931C01B093AB
:100150001D018FB780688FBF0895109281000895A8
:1001600081E080931E0108951F920F920FB60F92A7
:1001700011240BB60F922F933F934F935F936F937E
:100180007F938F939F93AF93BF93EF93FF93809150
:100190001A0190911B01A0911C01B0911D010197C2
:1001A000A109B10980931A0190931B01A0931C012E
:1001B000B0931D01892B8A2B8B2B91F40E94B000E8
:1001C0008091000190910101A0910201B091030181
:1001D00080931A0190931B01A0931C01B0931D0101
:1001E000FF91EF91BF91AF919F918F917F916F910F
:1001F0005F914F913F912F910F900BBE0F900FBECB
:100200000F901F90189520E030E014C02830310581
:1002100030F4992314F4589A07C0589805C09923CC
:1002200014F4589A01C05898880F991F5A9A5A98EE
:100230002F5F3F4F2031310548F3599A599808955F
:1002400080E090E004C058985A9A5A9801968031FC
:100250009105C8F3599A5998089540E050E00CC0B0
:1002600000002F5F3F4F02C020E030E0273063E006
:100270003607B4F34F5F5F4F48175907ACF3089543
:10028000169888B9179A0000179882E090E00E94AB
:100290002D01089581E00E9440010895813120F4EC
:1002A00081580E944001089581550E94400108959F
:1002B00084E690E00E942D0188E30E94400186E0E0
:1002C0000E9440018FE00E94400181E00E944001B5
:1002D0008AE090E00E942D010895169A88B9179A35
:1002E0000000179881E090E00E942D010895EF92A0
:1002F000FF920F931F93CF93DF93182FEB010E9470
:100300004A010EC001E0010F812F0E944E017E01C3
:100310008FEFE81AF80A88810E946D01102FE7011B
:1003200088818111EFCFDF91CF911F910F91FF90C5
:10033000EF90089580EC81B987E880937A0080E49B
:1003400080937C0008958770806480937C00EAE746
:10035000F0E080818064808380917A0084FFFCCF0C
:10036000EAE7F0E0808180618083209178008091CD
:10037000790090E0982F8827820F911D0895CF93E0
:10038000DF93CDB7DEB764970FB6F894DEBF0FBE2C
:10039000CDBF8FEF8AB91BB887B918B820EC21B947
:1003A0009FE392B98AB91BB887B918B821B992B935
:1003B0001BB804993EC087EF9FEF0E9403018BEEAC
:1003C00098E30E9403018BEA9CE30E9403018BEEF9
:1003D00094E30E9403018BEE9CE10E9403018BECED
:1003E0009CE30E94030189EE9CE30E9403018EEFCF
:1003F0009FEF0E9403010E94200103991AC08BE71E
:100400009BE60E9403018BE797E60E9403018FE3BE
:100410009DEA0E9403018FE79DE80E9403018BE59E
:100420009FE60E94030189E79FE60E9403010E9464
:100430002001049BBDCF0E949A0180E00E94A3018D
:10044000182F092F0E9458010F931F9382E191E00A
:100450009F938F938E010F5F1F4F1F930F930E94E7
:100460004002B80181E00E94770185E090E00E949F
:100470002D010F900F900F900F900F900F9098CF2D
:100480000F931F93CF93DF93CDB7DEB72E970FB6A1
:10049000F894DEBF0FBECDBF0D891E8986E08C8328
:1004A0001A8309838FEF9FE79E838D83AE01475E9A
:1004B0005F4F6F89788DCE0101960E9470022F8167
:1004C0003885F801E20FF31F10822E960FB6F894CC
:1004D000DEBF0FBECDBFDF91CF911F910F91089569
:1004E0002F923F924F925F926F927F928F929F9244
:1004F000AF92BF92CF92DF92EF92FF920F931F9332
:10050000CF93DF93CDB7DEB72C970FB6F894DEBF4D
:100510000FBECDBF7C016B018A01FC0117821682E0
:10052000838181FFBDC1CE0101964C01F70193810A
:10053000F60193FD859193FF81916F01882309F462
:10054000ABC1853239F493FD859193FF81916F01A1
:10055000853229F4B70190E00E948104E7CF512C45
:10056000312C20E02032A0F48B3269F030F480325C
:1005700059F0833269F420612CC08D3239F0803318
:1005800039F4216026C02260246023C0286021C085
:1005900027FD27C030ED380F3A3078F426FF06C02B
:1005A000FAE05F9E300D1124532E13C08AE0389E6E
:1005B000300D1124332E20620CC08E3221F426FD22
:1005C0006BC1206406C08C3611F4206802C08836E6
:1005D00041F4F60193FD859193FF81916F018111A3
:1005E000C1CF982F9F7D9554933028F40C5F1F4FF7
:1005F000FFE3F9830DC0833631F0833771F0833523
:1006000009F05BC022C0F801808189830E5F1F4F13
:1006100044244394512C540115C03801F2E06F0E6C
:10062000711CF801A080B18026FF03C0652D70E029
:1006300002C06FEF7FEFC5012C870E9476042C016A
:1006400083012C852F77222E17C03801F2E06F0E20
:10065000711CF801A080B18026FF03C0652D70E0F9
:1006600002C06FEF7FEFC5012C870E946B042C0145
:100670002C852068222E830123FC1BC0832D90E053
:1006800048165906B0F4B70180E290E00E94810458
:100690003A94F4CFF50127FC859127FE81915F0103
:1006A000B70190E00E94810431103A94F1E04F1AB2
:1006B00051084114510471F7E5C0843611F08936B0
:1006C00039F5F80127FF07C060817181828193812C
:1006D0000C5F1F4F08C060817181882777FD80956E
:1006E000982F0E5F1F4F2F76722E97FF09C090959F
:1006F0008095709561957F4F8F4F9F4F2068722E28
:100700002AE030E0A4010E94B904A82EA81844C031
:10071000853729F42F7EB22E2AE030E025C0F22F53
:10072000F97FBF2E8F36C1F018F4883579F0B4C048
:10073000803719F0883721F0AFC02F2F2061B22EFB
:10074000B4FE0DC08B2D8460B82E09C024FF0AC0F2
:100750009F2F9660B92E06C028E030E005C020E14A
:1007600030E002C020E132E0F801B7FE07C060814E
:100770007181828193810C5F1F4F06C060817181FE
:1007800080E090E00E5F1F4FA4010E94B904A82EE4
:10079000A818FB2DFF777F2E76FE0BC0372D3E7FEE
:1007A000A51450F474FE0AC072FC08C0372D3E7EBA
:1007B00005C0BA2C372D03C0BA2C01C0B52C34FFAC
:1007C0000DC0FE01EA0DF11D8081803311F4397EE8
:1007D00009C032FF06C0B394B39404C0832F867857
:1007E00009F0B39433FD13C030FF06C05A2CB31484
:1007F00018F4530C5B18B32CB31468F4B70180E2FF
:1008000090E03C870E948104B3943C85F5CFB314FB
:1008100010F43B1801C0312C34FF12C0B70180E343
:1008200090E03C870E9481043C8532FF17C031FD77
:1008300003C088E790E002C088E590E0B7010CC0F3
:10084000832F867859F031FF02C08BE201C080E22D
:1008500037FD8DE2B70190E00E948104A51438F4C1
:10086000B70180E390E00E9481045A94F7CFAA94E4
:10087000F401EA0DF11D8081B70190E00E9481042E
:10088000A110F5CF332009F451CEB70180E290E0FA
:100890000E9481043A94F6CFF7018681978102C0C5
:1008A0008FEF9FEF2C960FB6F894DEBF0FBECDBF33
:1008B000DF91CF911F910F91FF90EF90DF90CF903C
:1008C000BF90AF909F908F907F906F905F904F9070
:1008D0003F902F900895FC010590615070400110E9
:1008E000D8F7809590958E0F9F1F0895FC01615059
:1008F000704001900110D8F7809590958E0F9F1F42
:1009000008950F931F93CF93DF93FB01238121FD64
:1009100003C08FEF9FEF28C022FF16C0468157818A
:10092000248135814217530744F4A081B1819D0190
:100930002F5F3F4F318320838C93268137812F5F38
:100940003F4F3783268310C0EB01092F182F0084F7
:10095000F185E02D0995892BE1F68E819F81019625
:100960009F838E83812F902FDF91CF911F910F91C5
:100970000895FA01AA27283051F1203181F1E89435
:100980006F936E7F6E5F7F4F8F4F9F4FAF4FB1E082
:100990003ED0B4E03CD0670F781F891F9A1FA11D7D
:1009A000680F791F8A1F911DA11D6A0F711D811D7E
:1009B000911DA11D20D009F468943F912AE0269F43
:1009C00011243019305D3193DEF6CF010895462FA2
:1009D0004770405D4193B3E00FD0C9F7F6CF462F83
:1009E0004F70405D4A3318F0495D31FD40524193EC
:1009F00002D0A9F7EACFB4E0A695979587957795A9
:100A00006795BA95C9F700976105710508959B012F
:100A1000AC010A2E06945795479537952795BA95B8
:100A2000C9F7620F731F841F951FA01D0895F894C6
:020A3000FFCFF6
:100A3200010000000000000200000000670000004A
:0A0A4200000058203D20256400004C
:00000001FF
