:100000000C9446000C9465000C9465000C946500FB
:100010000C9465000C9465000C9465000C946500CC
:100020000C9465000C9465000C9465000C946500BC
:100030000C9465000C94A3000C9465000C9465006E
:100040000C9465000C9465000C9465000C9465009C
:100050000C9465000C9465000C9465000C9465008C
:100060000C9465000C9465000C9465000C9465007C
:100070000C9465000C9465000C9465000C9465006C
:100080000C9465000C9465000C94650011241FBE4F
:10009000CFEFD0E4DEBFCDBF11E0A0E0B1E0E4E1FE
:1000A000F7E000E00BBF02C007900D92A430B1074B
:1000B000D9F711E0A4E0B1E001C01D92AD30B10765
:1000C000E1F70E94FD010C9488030C9400006093FA
:1000D00000017093010180930201909303016093EA
:1000E0000401709305018093060190930701089520
:1000F0008BE0809381008DE790E09093890080935E
:10010000880082E080936F00109285001092840036
:100110008091000190910101A0910201B091030131
:100120008093040190930501A0930601B093070109
:100130008FB780688FBF089510928100089581E085
:100140008093080108951F920F920FB60F92112409
:100150000BB60F922F933F934F935F936F937F93C1
:100160008F939F93AF93BF93EF93FF93809104017D
:1001700090910501A0910601B09107010197A10995
:10018000B1098093040190930501A0930601B093F7
:100190000701892B8A2B8B2B91F40E949F00809161
:1001A000000190910101A0910201B091030180939F
:1001B000040190930501A0930601B0930701FF91FC
:1001C000EF91BF91AF919F918F917F916F915F91CF
:1001D0004F913F912F910F900BBE0F900FBE0F903C
:1001E0001F901895CF92DF92EF92FF926B017C01E6
:1001F0002091090130910A0140910B0150910C01AD
:100200000E940F02882309F458C020E030E0A901C1
:10021000C701B6010E940F02811106C0E1E9F0E0BA
:1002200080818870808305C0E1E9F0E0808183608F
:10023000808328E539E344E75FE3C701B6010E9404
:100240000F0288233CF48FEF9FEF909399008093E7
:10025000980027C020E034E244EF56E4C701B6011D
:100260000E94210318162CF4109299001092980005
:1002700018C020E030E040E053E4C701B6010E941E
:1002800025039B01AC0160E074E284EF9AE40E94D4
:1002900013020E947B026150710970939900609370
:1002A00098001092950010929400C0920901D0928B
:1002B0000A01E0920B01F0920C01FF90EF90DF90A9
:1002C000CF90089580E4809390008BE0809391001C
:1002D00060E070E0CB010E94F2000895109290005F
:1002E00010929100089540E050E00CC000002F5F94
:1002F0003F4F02C020E030E0273063E03607B4F320
:100300004F5F5F4F48175907ACF30895169888B9A7
:10031000179A0000179882E090E00E9473010895F8
:1003200081E00E9486010895813120F481580E9465
:100330008601089581550E948601089584E690E023
:100340000E94730188E30E94860186E00E94860174
:100350008FE00E94860181E00E9486018AE090E0A1
:100360000E9473010895169A88B9179A0000179889
:1003700081E090E00E9473010895EF92FF920F9345
:100380001F93CF93DF93182FEB010E9490010EC0B3
:1003900001E0010F812F0E9494017E018FEFE81A86
:1003A000F80A88810E94B301102FE701888181112A
:1003B000EFCFDF91CF911F910F91FF90EF900895B4
:1003C00020E030E014C02830310530F4992314F4D3
:1003D000589A07C0589805C0992314F4589A01C038
:1003E0005898880F991F5A9A5A982F5F3F4F20317B
:1003F000310548F3599A599808958FEF8AB91BB877
:1004000087B918B880EC81B98FE382B987EF9FEF85
:100410000E94E0018BEE9CE10E94E001F7CF9CD0AE
:1004200008F481E008950CD0D2C0CAD040F0C1D009
:1004300030F021F45F3F19F0B3C05111FCC0B6C0D9
:10044000D7D098F39923C9F35523B1F3951B550BD6
:10045000BB27AA2762177307840738F09F5F5F4F97
:10046000220F331F441FAA1FA9F333D00E2E3AF0D8
:10047000E0E830D091505040E695001CCAF729D0F2
:10048000FE2F27D0660F771F881FBB1F2617370741
:100490004807AB07B0E809F0BB0B802DBF01FF2771
:1004A00093585F4F2AF09E3F510568F079C0C3C052
:1004B0005F3FECF3983EDCF3869577956795B795AB
:1004C000F7959F5FC9F7880F911D9695879597F9C6
:1004D0000895E1E0660F771F881FBB1F621773073F
:1004E0008407BA0720F0621B730B840BBA0BEE1F54
:1004F00088F7E095089504D06894B1119CC00895E0
:100500007FD088F09F5790F0B92F9927B751A0F06E
:10051000D1F0660F771F881F991F1AF0BA95C9F797
:1005200012C0B13081F086D0B1E0089583C0672F4A
:10053000782F8827B85F39F0B93FCCF38695779547
:100540006795B395D9F73EF4909580957095619530
:100550007F4F8F4F9F4F0895990F0008550FAA0B9B
:10056000E0E8FEEF16161706E807F907C0F01216C6
:100570001306E407F50798F0621B730B840B950BC9
:1005800039F40A2661F0232B242B252B21F408951E
:100590000A2609F4A140A6958FEF811D811D0895BB
:1005A00097F99F6780E870E060E008959FEF80EC26
:1005B000089500240A9416161706180609060895C9
:1005C00000240A9412161306140605060895092E2F
:1005D0000394000C11F4882352F0BB0F40F4BF2B9E
:1005E00011F460FF04C06F5F7F4F8F4F9F4F0895DE
:1005F00057FD9058440F551F59F05F3F71F04795D4
:10060000880F97FB991F61F09F3F79F087950895B8
:10061000121613061406551FF2CF4695F1DF08C0D7
:10062000161617061806991FF1CF869571056105F4
:1006300008940895E894BB2766277727CB0197F99C
:1006400008958ADF08F48FEF08950BD0C0CFB1DF93
:1006500028F0B6DF18F0952309F0A2CFA7CF112418
:10066000EACFC6DFA0F3959FD1F3950F50E0551F59
:10067000629FF001729FBB27F00DB11D639FAA27F7
:10068000F00DB11DAA1F649F6627B00DA11D661F46
:10069000829F2227B00DA11D621F739FB00DA11D67
:1006A000621F839FA00D611D221F749F3327A00D21
:1006B000611D231F849F600D211D822F762F6A2FBD
:1006C00011249F5750408AF0E1F088234AF0EE0F42
:1006D000FF1FBB1F661F771F881F91505040A9F74F
:1006E0009E3F510570F05CCFA6CF5F3FECF3983E84
:1006F000DCF3869577956795B795F795E7959F5FB6
:10070000C1F7FE2B880F911D9695879597F908954F
:04071000F894FFCF8B
:0407140001000000E0
:00000001FF
